{"abi":[{"type":"constructor","inputs":[{"name":"_lensHub","type":"address","internalType":"contract ILensHub"},{"name":"_forwarder","type":"address","internalType":"address"}],"stateMutability":"nonpayable"},{"type":"function","name":"getTrustedForwarder","inputs":[],"outputs":[{"name":"forwarder","type":"address","internalType":"address"}],"stateMutability":"view"},{"type":"function","name":"isTrustedForwarder","inputs":[{"name":"forwarder","type":"address","internalType":"address"}],"outputs":[{"name":"","type":"bool","internalType":"bool"}],"stateMutability":"view"},{"type":"function","name":"lensHub","inputs":[],"outputs":[{"name":"","type":"address","internalType":"contract ILensHub"}],"stateMutability":"view"},{"type":"function","name":"transfer","inputs":[{"name":"token","type":"address","internalType":"address"},{"name":"fromProfileId","type":"uint256","internalType":"uint256"},{"name":"from","type":"address","internalType":"address"},{"name":"toProfileId","type":"uint256","internalType":"uint256"},{"name":"to","type":"address","internalType":"address"},{"name":"amount","type":"uint256","internalType":"uint256"},{"name":"contentURI","type":"string","internalType":"string"},{"name":"erc721Id","type":"uint256","internalType":"uint256"},{"name":"isERC20","type":"bool","internalType":"bool"}],"outputs":[],"stateMutability":"nonpayable"},{"type":"event","name":"Attestation","inputs":[{"name":"fromProfileId","type":"uint256","indexed":false,"internalType":"uint256"},{"name":"from","type":"address","indexed":false,"internalType":"address"},{"name":"toProfileId","type":"uint256","indexed":false,"internalType":"uint256"},{"name":"to","type":"address","indexed":false,"internalType":"address"},{"name":"amount","type":"uint256","indexed":false,"internalType":"uint256"},{"name":"token","type":"address","indexed":false,"internalType":"address"},{"name":"contentURI","type":"string","indexed":false,"internalType":"string"}],"anonymous":false}],"bytecode":{"object":"0x60a060405234801561001057600080fd5b5060405161085d38038061085d83398101604081905261002f91610081565b6001600160a01b03821660805261006281600080546001600160a01b0319166001600160a01b0392909216919091179055565b50506100bb565b6001600160a01b038116811461007e57600080fd5b50565b6000806040838503121561009457600080fd5b825161009f81610069565b60208401519092506100b081610069565b809150509250929050565b60805161076c6100f16000396000818160a201528181610103015281816101c901528181610258015261031e015261076c6000f3fe608060405234801561001057600080fd5b506004361061004c5760003560e01c806355be796414610051578063572b6c0514610066578063b02cfdc31461009d578063ce1b815f146100dc575b600080fd5b61006461005f366004610517565b6100ed565b005b6100886100743660046105fa565b6000546001600160a01b0391821691161490565b60405190151581526020015b60405180910390f35b6100c47f000000000000000000000000000000000000000000000000000000000000000081565b6040516001600160a01b039091168152602001610094565b6000546001600160a01b03166100c4565b881580159061019c5750876001600160a01b03167f00000000000000000000000000000000000000000000000000000000000000006001600160a01b0316636352211e8b6040518263ffffffff1660e01b815260040161014f91815260200190565b602060405180830381865afa15801561016c573d6000803e3d6000fd5b505050506040513d601f19601f82011682018060405250810190610190919061061e565b6001600160a01b031614155b80156102385750604051633f1a0f0f60e11b8152600481018a90526001600160a01b0389811660248301527f00000000000000000000000000000000000000000000000000000000000000001690637e341e1e906044016020604051808303816000875af1158015610212573d6000803e3d6000fd5b505050506040513d601f19601f82011682018060405250810190610236919061063b565b155b1561024257600080fd5b86158015906102f15750856001600160a01b03167f00000000000000000000000000000000000000000000000000000000000000006001600160a01b0316636352211e896040518263ffffffff1660e01b81526004016102a491815260200190565b602060405180830381865afa1580156102c1573d6000803e3d6000fd5b505050506040513d601f19601f820116820180604052508101906102e5919061061e565b6001600160a01b031614155b801561038d5750604051633f1a0f0f60e11b8152600481018890526001600160a01b0387811660248301527f00000000000000000000000000000000000000000000000000000000000000001690637e341e1e906044016020604051808303816000875af1158015610367573d6000803e3d6000fd5b505050506040513d601f19601f8201168201806040525081019061038b919061063b565b155b1561039757600080fd5b801561041e576040516323b872dd60e01b81526001600160a01b0389811660048301528781166024830152604482018790528b16906323b872dd906064016020604051808303816000875af11580156103f4573d6000803e3d6000fd5b505050506040513d601f19601f82011682018060405250810190610418919061063b565b50610490565b60408051600081526020810191829052635c46a7ef60e11b9091526001600160a01b038b169063b88d4fde9061045d908b908a90879060248101610658565b600060405180830381600087803b15801561047757600080fd5b505af115801561048b573d6000803e3d6000fd5b505050505b7f8c7ff4bde62818887263552c6139db56158c7cc9999e5ba7d8fa166859d1176189898989898f8a8a6040516104cd9897969594939291906106ca565b60405180910390a150505050505050505050565b6001600160a01b03811681146104f657600080fd5b50565b80151581146104f657600080fd5b8035610512816104f9565b919050565b6000806000806000806000806000806101208b8d03121561053757600080fd5b8a35610542816104e1565b995060208b0135985060408b0135610559816104e1565b975060608b0135965060808b0135610570816104e1565b955060a08b0135945060c08b013567ffffffffffffffff8082111561059457600080fd5b818d0191508d601f8301126105a857600080fd5b8135818111156105b757600080fd5b8e60208285010111156105c957600080fd5b60208301965080955050505060e08b013591506105e96101008c01610507565b90509295989b9194979a5092959850565b60006020828403121561060c57600080fd5b8135610617816104e1565b9392505050565b60006020828403121561063057600080fd5b8151610617816104e1565b60006020828403121561064d57600080fd5b8151610617816104f9565b600060018060a01b03808716835260208187166020850152856040850152608060608501528451915081608085015260005b828110156106a65785810182015185820160a00152810161068a565b5050600060a0828501015260a0601f19601f83011684010191505095945050505050565b8881526001600160a01b03888116602083015260408201889052868116606083015260808201869052841660a082015260e060c08201819052810182905260006101008385828501376000838501820152601f909301601f19169091019091019897505050505050505056fea26469706673582212203339404b3ca8cd6299604a2c5e09c9bc7b476f7a64458695778ba4333e5904e364736f6c63430008180033","linkReferences":{}},"methodIdentifiers":{"getTrustedForwarder()":"ce1b815f","isTrustedForwarder(address)":"572b6c05","lensHub()":"b02cfdc3","transfer(address,uint256,address,uint256,address,uint256,string,uint256,bool)":"55be7964"},"id":5}