{"abi":[{"type":"constructor","inputs":[{"name":"forwarder","type":"address","internalType":"address"},{"name":"_orbAttestationAddress","type":"address","internalType":"address"}],"stateMutability":"nonpayable"},{"type":"function","name":"getTrustedForwarder","inputs":[],"outputs":[{"name":"forwarder","type":"address","internalType":"address"}],"stateMutability":"view"},{"type":"function","name":"isTrustedForwarder","inputs":[{"name":"forwarder","type":"address","internalType":"address"}],"outputs":[{"name":"","type":"bool","internalType":"bool"}],"stateMutability":"view"},{"type":"function","name":"transfer","inputs":[{"name":"token","type":"address","internalType":"address"},{"name":"fromProfileId","type":"uint256","internalType":"uint256"},{"name":"from","type":"address","internalType":"address"},{"name":"toProfileId","type":"uint256","internalType":"uint256"},{"name":"to","type":"address","internalType":"address"},{"name":"amount","type":"uint256","internalType":"uint256"},{"name":"contentURI","type":"string","internalType":"string"},{"name":"erc721Id","type":"uint256","internalType":"uint256"},{"name":"isERC20","type":"bool","internalType":"bool"}],"outputs":[],"stateMutability":"nonpayable"}],"bytecode":{"object":"0x608060405234801561001057600080fd5b506040516103c93803806103c983398101604081905261002f9161007c565b600080546001600160a01b039384166001600160a01b031991821617909155600180549290931691161790556100af565b80516001600160a01b038116811461007757600080fd5b919050565b6000806040838503121561008f57600080fd5b61009883610060565b91506100a660208401610060565b90509250929050565b61030b806100be6000396000f3fe608060405234801561001057600080fd5b50600436106100415760003560e01c806355be796414610046578063572b6c051461005b578063ce1b815f14610092575b600080fd5b610059610054366004610159565b6100ad565b005b61007d610069366004610236565b6000546001600160a01b0391821691161490565b60405190151581526020015b60405180910390f35b6000546040516001600160a01b039091168152602001610089565b60015460405163156f9e5960e21b81526001600160a01b03909116906355be7964906100ef908d908d908d908d908d908d908d908d908d908d90600401610258565b600060405180830381600087803b15801561010957600080fd5b505af115801561011d573d6000803e3d6000fd5b5050505050505050505050505050565b80356001600160a01b038116811461014457600080fd5b919050565b8035801515811461014457600080fd5b6000806000806000806000806000806101208b8d03121561017957600080fd5b6101828b61012d565b995060208b0135985061019760408c0161012d565b975060608b013596506101ac60808c0161012d565b955060a08b0135945060c08b013567ffffffffffffffff808211156101d057600080fd5b818d0191508d601f8301126101e457600080fd5b8135818111156101f357600080fd5b8e602082850101111561020557600080fd5b60208301965080955050505060e08b013591506102256101008c01610149565b90509295989b9194979a5092959850565b60006020828403121561024857600080fd5b6102518261012d565b9392505050565b6001600160a01b038b81168252602082018b90528981166040830152606082018990528716608082015260a0810186905261012060c0820181905281018490526000610140858782850137600083870182015260e083019490945250901515610100820152601f909201601f19169091010197965050505050505056fea26469706673582212209c05b93067028fb9cae463a68ed18b378f19fb08a069371a3c169bd4c739e87464736f6c63430008180033","linkReferences":{}},"methodIdentifiers":{"getTrustedForwarder()":"ce1b815f","isTrustedForwarder(address)":"572b6c05","transfer(address,uint256,address,uint256,address,uint256,string,uint256,bool)":"55be7964"},"id":6}